:4000000080673030303030307e3030307e3030307e3030307e3030307e3030307e3030307e3030307d09e57e7e3030307d09887e7e3030307d092b7e7e3030307d08ce7eb8
:400040007e3030307d08147e7e3030307d07b77e7e3030307d08717e7d05587e7d05597e7e3030307e303030711062fa0062e38770ef50202850402850602862e33841fe59
:40008000fb50804e62e33855f80055f900711062e00270ef62e338627105627505627905627d0562d10750004e62d30762d00062d50062d40071c07c04f662d000500357c0
:4000c000ef0828531918750900284b5119800475090062e300082860d574a04b1875090008285319187509000828a01c53181875090008283f194719ffb0065dd57460d5ca
:40010000187a18bfeb8fc9187509000828531850003f194719ffb0085dd57460d550007a18bfef188faa18711070ef62e000711062e00043e78070ef62e2007c0a428fffc7
:4001400050107f3030303030303030303030303030303030303030303030303030303030303030303030303030303030303030303030303030303030303030303030303030
:4001800030303030303030303030303030303030303030303030303030303030303030302c2057696474683a2000536572766f49643a2000426f6f742e002300212022dc5f
:4001c0002700254e26052b0029202adc2f002d4e2e053300312032dc3700354e36053b0039203adc3f003d4e3e055300512052dc5700554e56054300412042dc4700454ec2
:4002000046054b0049204adc4f004d4e4e055f005d005e005b0059005a006028660063056500e600e700d600b000b100b200b333b433b511b600b855b900ba10bb33bc330d
:40024000bd00be11c000c100c220c333c433c520c602c859c900ca30cb33cc33cd02ce446c006d006e006f00ff200121162240242125362644280129162a402c212d362e0a
:4002800045300131163240342135363646380139163a403c213d363e47500151165200542155365604400141164240442145364645480149164a404c214d364e465c055d1f
:4002c000d15e40580d59015a4661006900600062006733683363006600d100d300d000d200e1c1e200df17de01dd00e700ff002020202020202020203030303030202020d4
:40030000202020202020202020202020202020904040404040404040404040404040400c0c0c0c0c0c0c0c0c0c404040404040400909090909090101010101010101010115
:40034000010101010101010101014040404040400a0a0a0a0a0a0202020202020202020202020202020202020202404040402000000000000000000000000000000000006f
:40038000000000000000000000000000000000000000000000000000000000000000000000000000000000000000000000000000000000000000000000000000000000003d
:4003c00000000000000000000000000000000000000000000000000000000000000000000000000000000000000000000000000ea470ef62000071106200006201ff70efe6
:400400006203ff620200711062020062030070ef62010062040071106204fc62050370ef6207016206fe711062060062070070ef62050062080071106208ff62090070efd0
:40044000620b00620aff7110620a00620b0070ef620900620c007110620c00620d0070ef620f00620e007110620e00620f0070ef620d00621000711062100062110070ef0d
:40048000621300621200711062120062130070ef621100621400711062140062150070ef621700621600711062160062170070ef621500621800711062180062190070ef4c
:4004c000621b00621a007110621a00621b0070ef621900621c007110621c00621d0070ef621f00621e007110621e00621f0070ef621d0070ef7f7c04fd7c03f17f1070ef3a
:40050000500067500157ba7c0518500167500257697c051870ef207f380210084f56fc00d00456fc01182070ef62e30010082839ffa01f4f48fc01a003711054fd182075c5
:4005400009001008284f59fd610018207509008fd738fc703f71c07f7e08105dd30858015d5f082108b00418805e1821e0a0122c00495e002120a050415ffe435f018048e7
:400580005d5e470001b041390db0142e000162d300703f7180560200703f7100802a3920c02662d3003c010fc011703f7180560200703f71002e0010800e703f71805402ac
:4005c000703f7100755a011860d320187e43df4043df807f41dfbf41df7f7f71102101a00743581070ef7f4158ef70ef7f2901605b605f912a7f415bfe415ffe7f60597f84
:400600005d5b7f5d5e7f5d5f7f210171103901a0064158ef800443581070ef7f082101a00643df80800441df7f182102a00643df40800441dfbf7f30313233343536373868
:40064000394142434445460867676767210fffe7900f18210fffe090087f4b9fea5b9fe77f495b10affc60597f495f08affc5d5e7f5d5f082108b00418800b5d5e4b182132
:40068000a0b0034b7f50007f5d5f21e8082108b0071829014b80071821e04b5d5e7f70bf60d35200a0069fb9758ff8703f71c07f70bf62d3074f52fba01a7bfb52fc59fd07
:4006c00060d35200495b10affc60594f62d30777fd8fe4703f71c07f4f3dfa00b0063dfb00a01d1052fc59fd28495b10affc60592007fd010ffc0017fb011ffa008fdb7031
:400700003f71c07f081028a00b9f56201875dff5748ff238fe7f500d9f47500a9f437f62d00055020062d00055010026000062d000551a007f62d000510021017f62d00014
:40074000510021f026000f7f62d00051017f70bf62d0005002021a5c62d3005200b0041080333920b01175761a52003c1a0fbff310560000801f1075761a3c1a0faff3523c
:4007800000a0123920bff1560000761a3c1a0fb004551a0f20103d0000b00a2057005b703f71c07f205000703f71c07f62d0005002021a5c50007f7e43df087f41dff77f52
:4007c000434b017f414bfe7f60495b604d7f604a5b604e7f5d4e5c5d4a7f4f5d4e085d4a08414bfe71105d490862490070ef5d4c5d4e085d485d4a085200604e5201604a32
:4008000071105202604970ef434b01182038fd703f71c07f7e43df027f41dffd7f4343017f4143fe7f60415b60457f60425b60467f5d465c5d427f4f5d46085d4208414338
:40084000fe71105d410862410070ef5d445d46085d405d4208520060465201604271105202604170ef434301182038fd703f71c07f7e43df207f41dfdf7f4353017f415345
:40088000fe7f60515b60557f60525b60567f5d565c5d527f4f5d56085d52084153fe71105d510862510070ef5d545d56085d505d52085200605652016052711052026051fd
:4008c00070ef435301182038fd703f71c07f7e43e1807f41e17f7f433b017f413bfe7f60395b603d7f603a5b603e7f5d3e5c5d3a7f4f5d3e085d3a08413bfe71105d390825
:4009000062390070ef5d3c5d3e085d385d3a085200603e5201603a71105202603970ef433b01182038fd703f71c07f7e43e1207f41e1df7f4333017f4133fe7f60315b6064
:40094000357f60325b60367f5d365c5d327f4f5d36085d32084133fe71105d310862310070ef5d345d36085d305d3208520060365201603271105202603170ef4333011857
:400980002038fd703f71c07f7e43e1087f41e1f77f432b017f412bfe7f60295b602d7f602a5b602e7f5d2e5c5d2a7f4f5d2e085d2a08412bfe71105d290862290070ef5deb
:4009c0002c5d2e085d285d2a085200602e5201602a71105202602970ef432b01182038fd703f71c07f7e43e1027f41e1fd7f4323017f4123fe7f60215b60257f60225b60ca
:400a0000267f5d265c5d227f4f5d26085d22084123fe71105d210862210070ef5d245d26085d205d2208520060265201602271105202602170ef432301182038fd703f7122
:400a4000c07f104f380d91261050010850b45c187c07047c071620810f107c07352062d0003900a103107c074e62d00053195a182051185401511954003c1900b0063c1848
:400a800000a0e062d00052015318520060d43e18540c560b00520c11445312520b31801980c0c02a12a00d3d0b00b0063d0c64a00380b0107c074e62d00053195a18205121
:400ac000185403511954023c1900b0063c1800a0925202085203087c0d2138fe62d00051185404107c074e62d00053195a182051185403511954023c1900b0063c1800a01a
:400b0000625202085203087c0d2138fe62d00051180890b562d0005118540651195405520508520608520408910938fc1050010850aa5c187c07042062d0005204531810ae
:400b40005000085118207c065a50010850a05c187c070420105205085206207c065a7c071620107c071f208ef138f3208fff107c09ea7c09ee7c098d7c09917c09307c095a
:400b8000347c08d37c08d77c08767c087a7c08197c081d7c07bc7c07c07c071f50017c061c50007c05ed2071017f104f3802560100560000800677010f0000520113fc5230
:400bc000001bfbcff238fe207f104f38025601dc56000550b43bfcd00656fcb480093dfc00d00456fc0062d00052fc5318500008511808500008500b087c0ce338fc5113b1
:400c00005318511253190618f40e1901511854015119540050c4130150091b00d0075601c456000962d000520153185200531938fe207f104f380252fc54015600003d0085
:400c400000b0063d0101a03f3d0000b0063d0102a0423d0000b0063d0103a0453d0000b0063d0104a0483d0000b0063d0105a04b3d0000b0063d0106a04e3d0000b0063ddf
:400c80000107a051805a1052fa0852fb207c09fc20804d1052fa0852fb207c099f2080401052fa0852fb207c09422080331052fa0852fb207c08e52080261052fa0852fb31
:400cc000207c08882080191052fa0852fb207c082b20800c1052fa0852fb207c07ce2038fe207f104f5dd00862d00052f960e952fc60e85deb531252fa60e95deb53135d8f
:400d0000ea48fc80a00303fa6cfad00303fc041252fb60e85deb04121860d020703f71c07f104f3804800677fc0ffb0062d00052fc531852fb60d43e1853185000085118d1
:400d4000087c0e8338fe62d0003c1900bfda3c1800bfd556030056020062d00052fc531852fb60d43e18392db00e56030156020077fc0ffb00801762d00052fc531852fb8b
:400d800060d43e18392bb00677fc0ffb00560100560000807b62d00052fc531852fb53195118010154fc5119090054fb520153165200531755140a55150055130055120025
:400dc0003c1500b0063c1400a01a70fb6e156e14d00c62d0005116041351170c1265166b178fde5f16135f171262d000511960d43e18531855190051160218531851170a89
:400e000019531951181130540151191900540062d00052fc531852fb60d43e1853185000085118087c0e6238fe62d0003c1900bf653c1800bf603d0200b0063d0300a01438
:400e400062d00052017311ff531852007319ff5319800c62d000520153185200531938fc207f104f62d00052fc01ef531852fb0902105818282053185519002618042619f5
:400e800000207f104f62d00052fc01ef531852fb090210581828205318551900261810261900207fff00303030303030303030303030303030303030303030303030303055
:400ec00030303030303030303030303030303030303030303030303030303030303030303030303030303030303030303030303030303030303030303030303030303030f2
:400f000030303030303030303030303030303030303030303030303030303030303030303030303030303030303030303030303030303030303030303030303030303030b1
:400f40003030303030303030303030303030303030303030303030303030303030303030303030303030303030303030303030303030303030303030303030303030303071
:400f80003030303030303030303030303030303030303030303030303030303030303030303030303030303030303030303030303030303030303030303030303030303031
:020000040010ea
:020000040020da
:020000008c541e
:00000001ff
